:100000000C9476000C9493000C9493000C94930041
:100010000C9493000C9493000C9493000C94930014
:100020000C9493000C9493000C9493000C94930004
:100030000C9493000C9493000C9493000C949300F4
:100040000C946C0C0C9493000C9493000C949300FF
:100050000C9493000C9493000C9493000C949300D4
:100060000C9493000C9493004F066B06770675066C
:100070007D065106830693069706B5060607D20647
:1000800006071B071E0736074B074B074B074B0797
:100090004B070000000800020100000304070000F5
:1000A000000000000000010204081020408001024E
:1000B00004081020010204081020040404040404AD
:1000C000040402020202020203030303030300000A
:1000D0000000230026002900000000002500280061
:1000E0002B0000000000240027002A0011241FBE5E
:1000F000CFEFD8E0DEBFCDBF12E0A0E0B1E0EAEF85
:10010000F2E202C005900D92A23BB107D9F722E0BE
:10011000A2EBB2E001C01D92AD3FB207E1F70E9431
:10012000CD0E0C947B110C9400000F931F93CF9372
:10013000DF931F92CDB7DEB78C0169830E946511F2
:100140006981681741F0C8010F90DF91CF911F912D
:100150000F910C946D110F90DF91CF911F910F9122
:1001600008950C946511CF92DF92EF92FF92823046
:1001700081F160F4882311F1813009F04DC061E014
:1001800082E00E94260E60E08DE01EC0833081F187
:10019000843009F041C061E08CE00E94260E60E0EE
:1001A0008DE00E94260E60E082E00E94260E60E054
:1001B00087E00E94260E60E088E02CC061E08DE0C0
:1001C0000E94260E60E082E00E94260E60E087E03A
:1001D0000AC061E087E00E94260E60E08DE00E9488
:1001E000260E60E082E00E94260E60E088E00EC0ED
:1001F00061E088E00E94260E60E08DE00E94260EFD
:1002000060E082E00E94260E60E087E00E94260EF9
:1002100060E08CE00E94260EC090C302D090C40221
:10022000E090C502F090C6028AEFC80ED11CE11C16
:10023000F11C0E94B60CC616D706E806F90608F0AF
:100240008DC00E94B60C6093C3027093C402809369
:10025000C5029093C60280E10E94480D61E070E003
:1002600080E090E00E94E50C80E10E94480DBC0116
:1002700080E090E00E94DB0F24EA30E745E651E49D
:100280000E9469100E94AF0F635F73406134784130
:1002900008F45CC08091BF029091C002A091C1029D
:1002A000B091C202892B8A2B8B2B71F40E94B60C61
:1002B0006053784F8F4F9F4F6093BF027093C0027F
:1002C0008093C1029093C2020E94B60CC090BF02FC
:1002D000D090C002E090C102F090C202C616D706CC
:1002E000E806F90698F5CD28CE28CF2879F161E007
:1002F0008DE00E94260E61E082E00E94260E61E001
:1003000087E00E94260E61E088E00E94260E61E0F0
:100310008CE00E94260E60E08AE00E94260E60E0DB
:1003200085E00E94260E60E08BE00E94260E60E0D1
:1003300083E00E94260E0E94B60C607489E00E9441
:10034000260E0E94B60C607486E0F3CF1092BF02B6
:100350001092C0021092C1021092C202FF90EF9060
:10036000DF90CF9008954F925F926F927F928F921D
:100370009F92AF92BF92CF92DF92EF92FF920F9334
:100380001F93CF93DF93CDB7DEB7C850D1400FB6E0
:10039000F894DEBF0FBECDBF062FB42E122F90E013
:1003A000E5E0F1E0DE011196292F01900D922A95EA
:1003B000E1F7823009F491C028F4882361F081309C
:1003C00079F0D5C3843009F483C208F4FCC18530C8
:1003D00009F407C3CCC381E000E0B12C10E0E0CF0A
:1003E000C090BB02D090BC02E090BD02F090BE0273
:1003F00025E0C20ED11CE11CF11C0E94B60CC616F1
:10040000D706E806F90608F0B4C30E94B60C60935C
:10041000BB027093BC028093BD029093BE02E1E0E8
:10042000F0E0EC0FFD1FE00FF11D3081E1E0F0E0A6
:10043000EC0FFD1FEB0DF11D2081E1E0F0E0EC0F72
:10044000FD1FE10FF11D90818091BA02831710F416
:100450008F5F03C0381718F481508093BA028091DF
:10046000B902821710F48F5F03C0281718F4815067
:100470008093B9028091B802891710F48F5F03C08E
:10048000981718F481508093B8028091BA02E1E085
:10049000F0E0EC0FFD1FE80FF11D608170E089E0D6
:1004A0000E94650D8091B902E1E0F0E0EC0FFD1FC4
:1004B000E80FF11D608170E08AE00E94650D809177
:1004C000B802E1E0F0E0EC0FFD1FE80FF11D6081E4
:1004D00070E08BE00E94650D4CC36B2D70E080E0F6
:1004E00090E00E94DD0F20E030E04FE753E40E94EF
:1004F000420FCF5FDE4F688379838A839B83C1502D
:10050000D140612F70E080E090E00E94DD0F20E09C
:1005100030E04FE753E40E94420F6B017C01602FF3
:1005200070E080E090E00E94DD0F20E030E04FE7D7
:1005300053E40E94420F20E030E040EC50E40E947F
:1005400069102B013C010E94AA0FCB5FDE4F68832C
:1005500079838A839B83C550D140CB5FDE4F08816E
:100560001981C550D140CF5FDE4F288139814A8142
:100570005B81C150D14060E070E080E89FE30E9461
:10058000DD0E9B01AC01C701B6010E9469104B0151
:100590005C01B80180E090E00E94DB0F9B01AC01A0
:1005A000C301B2010E94DD0E2B013C01CF5FDE4F83
:1005B000288139814A815B81C150D1400E946910F4
:1005C0009B01AC0160E070E080E89FE30E94DD0EDB
:1005D0009B01AC01C701B6010E946910CB5FDE4FE1
:1005E000688379838A839B83C550D140A30192019C
:1005F00060E070E080E89FE30E94DD0ECF5FDE4F99
:10060000288139814A815B81C150D1400E946910A3
:100610009B01AC0160E070E080E89FE30E94DD0E8A
:100620009B01AC01C701B6010E9469102B013C017E
:10063000C80166E070E00E94DC108330910509F487
:1006400060C030F481309105E1F00297E9F107C014
:100650008430910509F46DC0059709F487C020E046
:1006600030E04FE753E4C701B6010E9469100E94D1
:10067000AA0F062F20E030E04FE753E4C301B20198
:1006800017C020E030E04FE753E4CB5FDE4F6881D6
:1006900079818A819B81C550D1400E9469100E9456
:1006A000AA0F062F20E030E04FE753E4C701B60160
:1006B0000E9469100E94AA0F162F20E030E04FE739
:1006C00053E4C501B40174C020E030E04FE753E4C7
:1006D000C501B4010E9469100E94AA0F062F20E0F4
:1006E00030E04FE753E4C701B6010E9469100E9451
:1006F000AA0F162F20E030E04FE753E4C301B20108
:1007000057C020E030E04FE753E4C501B4010E9438
:1007100069100E94AA0F062F20E030E04FE753E453
:10072000CB5FDE4F688179818A819B81C550D14042
:1007300011C020E030E04FE753E4C301B2010E9452
:1007400069100E94AA0F062F20E030E04FE753E423
:10075000C501B4010E9469100E94AA0F162F20E063
:1007600030E04FE753E4C701B60122C020E030E09B
:100770004FE753E4C701B6010E9469100E94AA0F17
:10078000062F20E030E04FE753E4C501B4010E949A
:1007900069100E94AA0F162F20E030E04FE753E4C3
:1007A000CB5FDE4F688179818A819B81C550D140C2
:1007B0000E9469100E94AA0F262F412F602F81E00E
:1007C0000E94B301D6C16B2D70E080E090E00E94E2
:1007D000DD0F20E030E04FE753E40E94420F4B0171
:1007E0005C01612F70E080E090E00E94DD0F20E06E
:1007F00030E04FE753E40E94420F6B017C01602F11
:1008000070E080E090E00E94DD0F20E030E04FE7F4
:1008100053E40E94420F20E030E040EC50E40E949C
:100820006910CF5FDE4F688379838A839B83C150D1
:10083000D1400E94AA0FCB5FDE4F688379838A8301
:100840009B83C550D140CB5FDE4F08811981C550D5
:10085000D140A501940160E070E080E89FE30E9430
:10086000DD0E9B01AC01C701B6010E9469102B018E
:100870003C01B80180E090E00E94DB0F9B01AC01DD
:10088000CF5FDE4F688179818A819B81C150D140E1
:100890000E94DD0ECF5FDE4F688379838A839B835E
:1008A000C150D140C80166E070E00E94DC10833086
:1008B000910509F419C140F48130910509F433C15F
:1008C000029709F411C128C1049709F025C113C189
:1008D0006B2D70E080E090E00E94DD0F20E030E0C2
:1008E0004FE753E40E94420F4B015C01612F70E01F
:1008F00080E090E00E94DD0F20E030E04FE753E41D
:100900000E94420F6B017C01602F70E080E090E05C
:100910000E94DD0F20E030E04FE753E40E94420FD9
:1009200020E030E040EC50E40E946910CF5FDE4FE1
:10093000688379838A839B83C150D1400E94AA0F28
:10094000CB5FDE4F688379838A839B83C550D14018
:10095000CB5FDE4F08811981C550D140A5019401BC
:1009600060E070E080E89FE30E94DD0E9B01AC0137
:10097000C701B6010E9469102B013C01B80180E05B
:1009800090E00E94DB0F9B01AC01CF5FDE4F6881DE
:1009900079818A819B81C150D1400E94DD0ECF5F59
:1009A000DE4F688379838A839B83C150D140C8011D
:1009B00066E070E00E94DC108330910509F4B3C05A
:1009C00040F48130910509F4A7C0029709F4A4C04E
:1009D00092C08430910509F487C0059709F484C05A
:1009E0008AC06B2D70E080E090E00E94DD0F20E077
:1009F00030E04FE753E40E94420F4B015C01612F4E
:100A000070E080E090E00E94DD0F20E030E04FE7F2
:100A100053E40E94420F6B017C01602F70E080E084
:100A200090E00E94DD0F20E030E04FE753E40E94A9
:100A3000420F20E030E040EC50E40E946910CF5FAC
:100A4000DE4F688379838A839B83C150D1400E94A3
:100A5000AA0FCB5FDE4F688379838A839B83C5505F
:100A6000D140CB5FDE4F08811981C550D140A5012F
:100A7000940160E070E080E89FE30E94DD0E9B013E
:100A8000AC01C701B6010E9469102B013C01B801FD
:100A900080E090E00E94DB0F9B01AC01CF5FDE4F56
:100AA000688179818A819B81C150D1400E94DD0E8D
:100AB000CF5FDE4F688379838A839B83C150D140A7
:100AC000C80166E070E00E94DC108330910521F1DE
:100AD00030F48130910541F0029769F005C084300F
:100AE0009105D1F00597F9F020E030E04FE753E4AD
:100AF000C301B20136C0CF5FDE4F288139814A8100
:100B00005B81C150D14060E070E080E89FE30E94CB
:100B1000DD0EA501940111C020E030E04FE753E461
:100B2000C701B6011EC0A5019401CF5FDE4F6881E9
:100B300079818A819B81C150D1400E9469109B01BB
:100B4000AC0160E070E080E89FE30E94DD0E9B0155
:100B5000AC01C701B6010E94691020E030E04FE708
:100B600053E40E9469100E94AA0F862F03C080E000
:100B700001C081E0C85FDE4F0FB6F894DEBF0FBE44
:100B8000CDBFDF91CF911F910F91FF90EF90DF903C
:100B9000CF90BF90AF909F908F907F906F905F901D
:100BA0004F900895CF92DF92EF92FF921F93CF93D1
:100BB000DF93CDB7DEB7CC5AD1090FB6F894DEBFBC
:100BC0000FBECDBF182F84E2E5E0F2E0DE01A757AB
:100BD000BF4F01900D928A95E1F784E2E9E2F2E0DD
:100BE000DE01AB59BF4F01900D928A95E1F78CE37E
:100BF000EDE4F2E0DE01119601900D928A95E1F7A5
:100C000088E2E9E8F2E0DE01DD9601900D928A9536
:100C1000E1F78091B702181729F01092B6021093ED
:100C2000B70232C0103148F0612F70E06F50710987
:100C300082E390E00E94F01001C069E1C090B2022E
:100C4000D090B302E090B402F090B502C60ED11C71
:100C5000E11CF11C0E94B60CC616D706E806F90680
:100C600098F40E94B60C6093B2027093B302809322
:100C7000B4029093B5028091B6028F5F8093B60262
:100C8000843210F01092B602812F90E085319105E8
:100C900008F02EC1FC01EC5CFF4F0C94231160E0C6
:100CA0001BC061E086E00E94260E61E085E00E94A4
:100CB000260E61E083E0C455DF4F0FB6F894DEBF27
:100CC0000FBECDBFDF91CF911F91FF90EF90DF90CE
:100CD000CF900C94260E61E086E00E94260E60E024
:100CE00085E00E94260E60E0E5CF61E001C060E093
:100CF00086E00E94260E61E0F3CF60E086E00E946D
:100D0000260E60E0D3CF0E94B60C607886E00E9489
:100D1000260E0E94B60C607885E00E94260E0E9486
:100D2000B60C6078C7CF0E94B60C6078D5CF8091A2
:100D3000B602E1E0F0E0EC0FFD1FE80FF11D60816D
:100D400070E086E00E94650D8091B602FE01E80F1A
:100D5000F11D618D70E085E00E94650D8091B60205
:100D6000FE01E80FF11D658564C08091B602E5E6DD
:100D7000F0E0EC0FFD1FE80FF11D608170E086E0F0
:100D80000E94650D8091B602E5E6F0E0EC0FFD1FD4
:100D9000E80FF11D608170E085E00E94650D6FEF46
:100DA00070E095C08091B602E9E8F0E0EC0FFD1F1D
:100DB000E80FF11D608170E084E0759567958A9574
:100DC000E1F786E00E94650D8091B602E9E8F0E067
:100DD000EC0FFD1FE80FF11D608170E094E0759548
:100DE00067959A95E1F785E00E94650D8091B602BE
:100DF000E9E8F0E0EC0FFD1FE80FF11D608170E005
:100E000024E0759567952A95E1F761C060E070E090
:100E100086E00E94650D60E070E085E00E94650D4F
:100E20008091B602E9E8F0E0EC0FFD1FE80FF11D3C
:100E3000608170E04CC060E070E00AC08091B60252
:100E4000E9E8F0E0EC0FFD1FE80FF11D608170E0B4
:100E500086E00E94650D8091B602E9E8F0E0EC0FB3
:100E6000FD1FE80FF11D608170E00FC08091B60298
:100E7000E9E8F0E0EC0FFD1FE80FF11D608170E084
:100E800086E00E94650D60E070E085E00E94650DDF
:100E900060E070E01CC08091B602FE01E05CFF4F94
:100EA000E80FF11D6081772767FD709586E00E944D
:100EB000650D60E070E085E00E94650D8091B602EE
:100EC000FE01E80FF11D65AD772767FD709583E0A2
:100ED000C455DF4F0FB6F894DEBF0FBECDBFDF9114
:100EE000CF911F91FF90EF90DF90CF900C94650D04
:100EF000C455DF4F0FB6F894DEBF0FBECDBFDF91F4
:100F0000CF911F91FF90EF90DF90CF9008952F9297
:100F10003F924F925F926F927F928F929F92AF9289
:100F2000BF92CF92DF92EF92FF920F931F93CF93D6
:100F3000DF93CDB7DEB72A970FB6F894DEBF0FBEAA
:100F4000CDBF61E08DE00E94ED0D61E08DE00E947B
:100F5000260E61E082E00E94ED0D61E087E00E94D4
:100F6000ED0D61E088E00E94ED0D61E08CE00E94F3
:100F7000ED0D60E081E10E94ED0D61E086E00E94F0
:100F8000ED0D61E085E00E94ED0D61E083E00E94DF
:100F9000ED0D61E089E00E94ED0D61E08AE00E94C4
:100FA000ED0D61E08BE00E94ED0D81E10E945C0E91
:100FB000019709F067C18FE00E94480D893E934078
:100FC0000CF460C181E10E945C0E892BD9F71D826F
:100FD0001E821F821886412C512C32011C821B82DA
:100FE000812C912C198631E039831A86212C312CE1
:100FF0001A828FE00E94480D8C0181E10E945C0EF4
:10100000019701F5EA81EE23B1F031103AC00E9458
:10101000B60C3324339473016201F2E3CF0ED11C7A
:10102000E11CF11CC616D706E806F90608F0312CBB
:1010300021E02A832EC00E94B60C2B013C0131E036
:101040003A8327C04A814423F9F0332001F10E94FA
:10105000B60C9B01AC012419350946095709290131
:101060003A01DA01C90185569109A109B109222481
:1010700023948F389140A105B10508F0212C312C23
:1010800007C041E04A8305C0212C312C02C0212C2D
:101090001A825A85523009F45BC028F4552359F05E
:1010A000513059F1A6CF8A85833009F47DC0843050
:1010B00009F4A6C09ECFE981EE2329F08FE00E94BB
:1010C000480D9C838B8320E040E060E080E00E943C
:1010D000B30186E00E94D2058B819C81801B910B1D
:1010E00097FF03C09195819591090B970CF4C8C0A7
:1010F00041E0498351E05A877CCF88E00E94D205C5
:10110000B80180E090E01F921F921F92FFEFFF93C3
:10111000A12CB12C6501EE24EA9413E0F12E00E03D
:1011200010E020E030E0A9010E94850E69872FEFD2
:101130004FEF82E00E94B3010F900F900F900F903D
:10114000222009F456CF21E0298332E03A8751CF9B
:1011500089E00E94D205B80180E090E01F921F92C2
:101160001F924FEF4F93A12CB12C6501EE24EA940E
:1011700013E0F12E00E010E020E030E0A9010E9431
:10118000850E962E2FEF462F698582E00E94B301CF
:101190000F900F900F900F90222009F42ACF51E06A
:1011A000598383E08A8725CF8AE00E94D205B8015F
:1011B00080E090E01F921F921F92EFEFEF93A12C1F
:1011C000B12C6501EE24EA9413E0F12E00E010E06A
:1011D00020E030E0A9010E94850E862E262F492DA1
:1011E000698582E00E94B3010F900F900F900F90DD
:1011F000222009F4FECEF1E0F98324E02A87F9CE1B
:101200003981332339F10E94B60C6D837E838F833D
:101210009887282D492D698583E00E94B301682FA6
:1012200084E090E00E949500282D492D698584E096
:101230000E94B301682F85E090E00E949500282D60
:10124000492D698585E00E94B301682F86E090E012
:101250000E94950087E00E94D2050E94B60C0D8185
:101260001E812F81388504521A4F2F4F3F4F06178A
:1012700017072807390720F481E089831A86B9CE39
:101280001982B7CE2A960FB6F894DEBF0FBECDBF37
:10129000DF91CF911F910F91FF90EF90DF90CF9052
:1012A000BF90AF909F908F907F906F905F904F9086
:1012B0003F902F900895AF92BF92CF92DF92EF921E
:1012C000FF920F931F93CF93DF9300D0CDB7DEB77C
:1012D0008091EC02811109C083E090E00E94B1008E
:1012E0008093DB0281E08093EC028091E402811123
:1012F00009C082E090E00E94B1008093DA0281E0B0
:101300008093E4028091DC02811109C081E090E0C9
:101310000E94B1008093D90281E08093DC02809129
:10132000D902823058F061E081E090E00E9495009F
:1013300081E090E00E94B1008093D9028091DA02AE
:10134000823058F061E082E090E00E94950082E0F7
:1013500090E00E94B1008093DA028091DB02863037
:1013600058F064E083E090E00E94950083E090E014
:101370000E94B1008093DB0281E10E945C0E20910B
:10138000D702019709F0C1C011E01093D8022223BF
:1013900009F4AEC02091D6028091D2029091D3027E
:1013A000A091D402B091D5026C017D01211110C031
:1013B00022E3C20ED11CE11CF11C0E94B60CC61621
:1013C000D706E806F90608F0F4C01093D602F1C07B
:1013D0003EE6C30ED11CE11CF11C0E94B60CC616E1
:1013E000D706E806F906A0F4C090D202D090D30246
:1013F000E090D402F090D50289EBC80ED11CE11C1C
:10140000F11C0E94B60C6C157D058E059F0550F1F0
:10141000C090D202D090D302E090D402F090D502D6
:10142000F8EFCF0EF2E0DF1EE11CF11C0E94B60CBB
:10143000C616D706E806F906B8F4C090D202D090D6
:10144000D302E090D402F090D502E3E4CE0EE3E0C4
:10145000DE1EE11CF11C0E94B60C6C157D058E058C
:101460009F0510F485E041C0C090D202D090D30215
:10147000E090D402F090D5022EECC20E29E0D21EEC
:10148000E11CF11C0E94B60CC616D706E806F90648
:10149000A8F4C090D202D090D302E090D402F09091
:1014A000D502F9E1CF0EFAE0DF1EE11CF11C0E942B
:1014B000B60C6C157D058E059F05A0F2C090D2027A
:1014C000D090D302E090D402F090D50232E6C30E61
:1014D0003BE1D31EE11CF11C0E94B60CC616D706D8
:1014E000E806F90608F4BECF80E00E94D20561C08C
:1014F0000E94B60C6093D2027093D3028093D40200
:101500009093D5021093D70254C01092D802222390
:1015100009F44BC08091D602882309F446C00E948A
:10152000B60CC090D202D090D302E090D402F090DA
:10153000D5026C197D098E099F096093D2027093C0
:10154000D3028093D4029093D5026B017C0125ECE9
:10155000C21A29E0D20AE108F10833E9C31631E1E1
:10156000D306E104F10410F483E01DC06B017C019B
:10157000EFEECE1AE2E0DE0AE108F108F1EECF1656
:10158000F4E0DF06E104F10410F482E00CC0DC01B9
:10159000CB0185569109A109B1098F389140A10568
:1015A000B10518F481E08093D1021092D702109215
:1015B000D6028091D1028823A9F18130C1F48091B3
:1015C000DB028F5F863018F48093DB0202C010923A
:1015D000DB0281E08093D0020E94B60C6093CC02C3
:1015E0007093CD028093CE029093CF0219C08230C7
:1015F00051F461E08091DA02811160E06093DA02D7
:1016000082E090E00BC0833059F461E08091D90210
:10161000811160E06093D90281E090E00E94950022
:101620001092D1028091D0028823B1F0C090CC02F8
:10163000D090CD02E090CE02F090CF0238E8C30EF9
:1016400033E1D31EE11CF11C0E94B60CC616D7066E
:10165000E806F90608F437C18091D902882309F415
:101660001DC11091DB021230F9F028F4112351F062
:10167000113089F0FAC0143049F1F8F0153009F44E
:10168000C6C0F3C081E00E94B3008091D8028111EE
:10169000ECC084E0E8C082E00E94B3008091D802F0
:1016A0008111E3C082E0DFC083E00E94B30080913B
:1016B000D8028111DAC083E0D6C084E00E94B30072
:1016C0008091D8028111D1C081E0CDC0C090C80204
:1016D000D090C902E090CA02F090CB0280EDC80E13
:1016E00087E0D81EE11CF11C0E94B60CC616D70676
:1016F000E806F90608F083C00E94B60C6093C802A1
:101700007093C9028093CA029093CB028EE00E942C
:10171000480D61E070E080E090E00E94E50C8EE012
:101720000E94480DBC0180E090E00E94DB0F20E0A9
:1017300034E244EF53E40E9469100E94AF0F613F0E
:10174000E5E57E078105910530F02091C702211162
:101750000FC081E02DC06035F6E47F07810591055B
:1017600088F48091C702813099F41092C70243C077
:10177000693739E673078105910520F0213069F456
:1017800082E016C0683DE9E57E078105910528F4F1
:101790008091C7028230A9F4DCCF6130FDE77F077A
:1017A0008105910540F02091C702223079F483E051
:1017B0008093C70220C060362DE67207810591052F
:1017C00028F48091C702833091F4DACF693830E988
:1017D00073078105910530F08091C702833059F479
:1017E00084E0E6CF683E70488105910520F4809141
:1017F000C7028430E1F28091C7020E94B300809159
:10180000D802811132C08091C702855F2CC08FE061
:101810000E94480DBC01882777FD8095982F1F9264
:101820001F921F921F93A12CB12C6501EE24EA9404
:1018300013E0F12E00E010E020E030E0A9010E946A
:10184000850E0F900F900F900F90653008F064E0B8
:10185000862F69830E94B3008091D802698181112B
:1018600004C080E1860F0E94D2058091DA028823AD
:10187000C1F086E090E00E94B100282F85E090E062
:101880002A830E94B100482F84E090E049830E949F
:10189000B1002A814981682F81E007C080E00E9461
:1018A000B30020E040E060E080E00F900F90DF9117
:1018B000CF911F910F91FF90EF90DF90CF90BF904D
:1018C000AF900C94B3011092D0026091DB0283E0E0
:1018D00090E00E949500C0CE1F920F920FB60F921B
:1018E00011242F933F938F939F93AF93BF93809136
:1018F000F5029091F602A091F702B091F8023091B2
:10190000F40223E0230F2D3720F40196A11DB11D11
:1019100005C026E8230F0296A11DB11D2093F402F5
:101920008093F5029093F602A093F702B093F80229
:101930008091F9029091FA02A091FB02B091FC0211
:101940000196A11DB11D8093F9029093FA02A09314
:10195000FB02B093FC02BF91AF919F918F913F9199
:101960002F910F900FBE0F901F9018952FB7F894DE
:101970006091F5027091F6028091F7029091F80261
:101980002FBF08953FB7F8948091F9029091FA0221
:10199000A091FB02B091FC0226B5A89B05C02F3F89
:1019A00019F00196A11DB11D3FBF6627782F892F21
:1019B0009A2F620F711D811D911D42E0660F771FE6
:1019C000881F991F4A95D1F70895CF92DF92EF9221
:1019D000FF92CF93DF936B017C010E94C20CEB015D
:1019E000C114D104E104F10489F00E94DC0E0E94CC
:1019F000C20C6C1B7D0B683E734090F381E0C81AEB
:101A0000D108E108F108C851DC4FEACFDF91CF914E
:101A1000FF90EF90DF90CF900895789484B5826026
:101A200084BD84B5816084BD85B5826085BD85B582
:101A3000816085BDEEE6F0E0808181608083E1E831
:101A4000F0E0108280818260808380818160808369
:101A5000E0E8F0E0808181608083E1EBF0E080816C
:101A600084608083E0EBF0E0808181608083EAE73E
:101A7000F0E08081846080838081826080838081C7
:101A8000816080838081806880831092C100089586
:101A90008E3008F08E5087702091040190E4299FC9
:101AA00090011124822B80937C0080917A008064C5
:101AB00080937A0080917A0086FDFCCF8091780037
:101AC0002091790090E0922B08951F93CF93DF939C
:101AD000182FEB0161E00E94ED0D209711F460E0FA
:101AE00004C0CF3FD10539F461E0812FDF91CF9160
:101AF0001F910C94260EE12FF0E0EE56FF4FE4917B
:101B0000E330F9F048F4E130B9F0E230A1F584B502
:101B1000806284BDC8BD34C0E730E9F0E83019F117
:101B2000E43049F580918000806280938000D093FA
:101B30008B00C0938A0024C084B5806884BDC7BD73
:101B40001FC080918000806880938000D0938900BE
:101B5000C093880015C08091B00080688093B00069
:101B6000C093B3000DC08091B00080628093B0003C
:101B7000C093B40005C0C038D1050CF0B5CFAFCFCD
:101B8000DF91CF911F910895833081F028F4813047
:101B900099F08230A1F008958730A9F08830B9F02B
:101BA0008430D1F4809180008F7D03C080918000CB
:101BB0008F7780938000089584B58F7702C084B5B5
:101BC0008F7D84BD08958091B0008F7703C0809190
:101BD000B0008F7D8093B0000895CF93DF9390E0A5
:101BE000FC01EA55FF4F2491FC01E654FF4F84911C
:101BF000882349F190E0880F991FFC01EE51FF4FB7
:101C0000A591B49188529F4FFC01C591D4919FB783
:101C1000611108C0F8948C91209582238C9388815F
:101C200082230AC0623051F4F8948C91322F30959F
:101C300083238C938881822B888304C0F8948C91B1
:101C4000822B8C939FBFDF91CF9108950F931F93A9
:101C5000CF93DF931F92CDB7DEB7282F30E0F90185
:101C6000EE56FF4F8491F901EA55FF4F1491F901A7
:101C7000E654FF4F04910023C9F0882321F06983C3
:101C80000E94C40D6981E02FF0E0EE0FFF1FE852C3
:101C9000FF4FA591B4919FB7F8948C91611103C047
:101CA0001095812301C0812B8C939FBF0F90DF91F2
:101CB000CF911F910F910895CF93DF93282F30E09C
:101CC000F901EE56FF4F8491F901EA55FF4FD49187
:101CD000F901E654FF4FC491CC2391F081110E9489
:101CE000C40DEC2FF0E0EE0FFF1FE253FF4FA59164
:101CF000B4912C912D2381E090E021F480E002C08A
:101D000080E090E0DF91CF9108954F925F926F92C3
:101D10007F92AF92BF92CF92DF92EF92FF920F939A
:101D20001F93CF93DF93CDB7DEB729013A01621B32
:101D3000730B840B950B29893A894B895C892A1985
:101D40003B094C095D09298B3A8B4B8B5C8B9B01C2
:101D5000AC0169897A898B899C890E94CC10E4182E
:101D6000F50806091709A80197010E9404112A0D18
:101D70003B1D4C1D5D1DCA01B901DF91CF911F9123
:101D80000F91FF90EF90DF90CF90BF90AF907F903A
:101D90006F905F904F90089508950E940D0D0E94DE
:101DA000CC0E0E948707C0E0D0E00E945B0920971C
:101DB000E1F30E940000F9CF08955058BB27AA27ED
:101DC0000ED04DC13ED130F043D120F031F49F3FD1
:101DD00011F41EF433C10EF4E095E7FB29C1E92F9D
:101DE0004FD180F3BA17620773078407950718F07D
:101DF00071F49EF567C10EF4E0950B2EBA2FA02D5D
:101E00000B01B90190010C01CA01A0011124FF27A7
:101E1000591B99F0593F50F4503E68F11A16F040A2
:101E2000A22F232F342F4427585FF3CF46953795A1
:101E30002795A795F0405395C9F77EF41F16BA0B66
:101E4000620B730B840BBAF09150A1F0FF0FBB1F14
:101E5000661F771F881FC2F70EC0BA0F621F731F5D
:101E6000841F48F4879577956795B795F7959E3FBA
:101E700008F0B3CF9395880F08F09927EE0F979548
:101E8000879508950CD0EBC0E3D040F0DAD030F065
:101E900021F45F3F19F0CCC0511115C1CFC0F0D073
:101EA00098F39923C9F35523B1F3951B550BBB2721
:101EB000AA2762177307840738F09F5F5F4F220FCE
:101EC000331F441FAA1FA9F333D00E2E3AF0E0E8C7
:101ED00030D091505040E695001CCAF729D0FE2F13
:101EE00027D0660F771F881FBB1F261737074807A5
:101EF000AB07B0E809F0BB0B802DBF01FF2793585B
:101F00005F4F2AF09E3F510568F092C0DCC05F3FF2
:101F1000ECF3983EDCF3869577956795B795F79542
:101F20009F5FC9F7880F911D9695879597F908953A
:101F3000E1E0660F771F881FBB1F621773078407D6
:101F4000BA0720F0621B730B840BBA0BEE1F88F7E5
:101F5000E095089504D06894B111B5C0089598D063
:101F600088F09F5790F0B92F9927B751A0F0D1F082
:101F7000660F771F881F991F1AF0BA95C9F712C00C
:101F8000B13081F09FD0B1E008959CC0672F782FC9
:101F90008827B85F39F0B93FCCF386957795679578
:101FA000B395D9F73EF490958095709561957F4FE4
:101FB0008F4F9F4F0895E89409C097FB3EF490958A
:101FC0008095709561957F4F8F4F9F4F9923A9F012
:101FD000F92F96E9BB279395F695879577956795A1
:101FE000B795F111F8CFFAF4BB0F11F460FF1BC0E5
:101FF0006F5F7F4F8F4F9F4F16C0882311F096E978
:1020000011C0772321F09EE8872F762F05C0662325
:1020100071F096E8862F70E060E02AF09A95660FDE
:10202000771F881FDAF7880F9695879597F9089597
:1020300097F99F6780E870E060E008959FEF80EC7B
:10204000089500240A94161617061806090608951E
:1020500000240A9412161306140605060895092E84
:102060000394000C11F4882352F0BB0F40F4BF2BF3
:1020700011F460FF04C06F5F7F4F8F4F9F4F089533
:1020800057FD9058440F551F59F05F3F71F0479529
:10209000880F97FB991F61F09F3F79F0879508950E
:1020A000121613061406551FF2CF4695F1DF08C02D
:1020B000161617061806991FF1CF8695710561054A
:1020C00008940895E894BB2766277727CB0197F9F2
:1020D00008950BD0C4CFB5DF28F0BADF18F09523F0
:1020E00009F0A6CFABCF1124EECFCADFA0F3959FA6
:1020F000D1F3950F50E0551F629FF001729FBB27EF
:10210000F00DB11D639FAA27F00DB11DAA1F649F9A
:102110006627B00DA11D661F829F2227B00DA11D4D
:10212000621F739FB00DA11D621F839FA00D611DD3
:10213000221F749F3327A00D611D231F849F600DF4
:10214000211D822F762F6A2F11249F5750408AF02D
:10215000E1F088234AF0EE0FFF1FBB1F661F771FB9
:10216000881F91505040A9F79E3F510570F060CFF5
:10217000AACF5F3FECF3983EDCF3869577956795A1
:10218000B795F795E7959F5FC1F7FE2B880F911DD7
:102190009695879597F90895DB018F939F930E94F9
:1021A0002911BF91AF91A29F800D911DA39F900D0A
:1021B000B29F900D11240895AA1BBB1B51E107C0CB
:1021C000AA1FBB1FA617B70710F0A61BB70B881FC7
:1021D000991F5A95A9F780959095BC01CD01089556
:1021E00097FB072E16F4009407D077FD09D00E94C4
:1021F000DC1007FC05D03EF4909581959F4F089523
:10220000709561957F4F0895052E97FB1EF40094FD
:102210000E941B1157FD07D00E94341107FC03D008
:102220004EF40C941B1150954095309521953F4FDD
:102230004F4F5F4F089590958095709561957F4FB2
:102240008F4F9F4F0895EE0FFF1F0590F491E02DE3
:1022500009940E945611A59F900DB49F900DA49FC4
:10226000800D911D11240895A1E21A2EAA1BBB1BFB
:10227000FD010DC0AA1FBB1FEE1FFF1FA217B30752
:10228000E407F50720F0A21BB30BE40BF50B661F68
:10229000771F881F991F1A9469F76095709580952C
:1022A00090959B01AC01BD01CF010895A29FB001A3
:1022B000B39FC001A39F700D811D1124911DB29F7A
:1022C000700D811D1124911D0895F999FECF92BDC5
:1022D00081BDF89A992780B50895262FF999FECFE8
:1022E0001FBA92BD81BD20BD0FB6F894FA9AF99A33
:0A22F0000FBE01960895F894FFCF89
:1022FA0001000000010000000000010101010101CC
:10230A0001010102020202020202020203030303A2
:10231A000303030304040404040405050505050670
:10232A000606060607070707080808080909090A2A
:10233A000A0A0A0B0B0B0C0C0C0D0D0D0E0E0F0FCF
:10234A000F10101111111212131314141515161659
:10235A001717181819191A1A1B1C1C1D1D1E1F1FC6
:10236A0020202122222324252526272728292A2B13
:10237A002B2C2D2E2F2F3031323334353636373839
:10238A00393A3B3C3D3E3F40414243444647484937
:10239A004A4B4C4D4F50515253555657585A5B5C05
:1023AA005E5F606263646667696A6C6D6E707173A2
:1023BA00747678797B7C7E8081838486888A8B8D0B
:1023CA008F91929496989A9B9D9FA1A3A5A7A9AB3A
:1023DA00ADAFB1B3B5B7B9BBBDBFC1C4C6C8CACC2E
:1023EA00CFD1D3D6D8DADCDFE1E4E6E8EBEDF0F2E0
:1023FA00F5F7FAFCFF000203060A0F161F293644F6
:10240A00566A819BB9DAFFFFDAB99B816A5644366C
:10241A00291F160F0A06030200FFDAB99B816A56C2
:10242A004436291F160F0A06030200000203060A91
:10243A000F161F293644566A819BB9DAFFFFFFFF40
:10244A00FFFFFFAC6D40210E0500000000000000F8
:10245A000000000000050E21406DACFFFFFFFFFFEA
:10246A00FFFFFFFFFFFFFFAC6D40210E05000000DC
:10247A000000000000000000002F445F7C9DBBD8D4
:10248A00EDFAFCF5E4CAAD8D6D513926180E080433
:10249A000201000000010203060B121E2F445F7C9A
:0224AA009D0093
:107800000C94343C0C94513C0C94513C0C94513CE1
:107810000C94513C0C94513C0C94513C0C94513CB4
:107820000C94513C0C94513C0C94513C0C94513CA4
:107830000C94513C0C94513C0C94513C0C94513C94
:107840000C94513C0C94513C0C94513C0C94513C84
:107850000C94513C0C94513C0C94513C0C94513C74
:107860000C94513C0C94513C11241FBECFEFD8E036
:10787000DEBFCDBF11E0A0E0B1E0ECE9FFE702C060
:1078800005900D92A230B107D9F712E0A2E0B1E065
:1078900001C01D92AD30B107E1F70E942D3D0C945F
:1078A000CC3F0C94003C982F959595959595959582
:1078B000905D8F708A307CF0282F295A8091C0000B
:1078C00085FFFCCF9093C6008091C00085FFFCCF60
:1078D0002093C6000895282F205DF0CF982F809127
:1078E000C00085FFFCCF9093C6000895EF92FF92F1
:1078F0000F931F93EE24FF2487018091C00087FD22
:1079000017C00894E11CF11C011D111D81E4E8164B
:1079100082E4F8068FE0080780E0180770F3E09132
:107920000401F091050109958091C00087FFE9CF1E
:107930008091C6001F910F91FF90EF9008950E94D3
:10794000763C982F8091C00085FFFCCF9093C600B5
:1079500091362CF490330CF09053892F089597555D
:10796000892F08951F930E949F3C182F0E949F3CCF
:107970001295107F810F1F9108951F93182F882350
:1079800021F00E94763C1150E1F71F9108951F935A
:10799000182F0E94763C803249F0809103018F5F5E
:1079A000809303018530C1F01F9108958091C0003C
:1079B00085FFFCCF84E18093C6008091C00085FFE5
:1079C000FCCF1093C6008091C00085FFFCCF80E102
:1079D0008093C6001F910895E0910401F091050184
:1079E00009951F9108950E94763C803241F0809164
:1079F00003018F5F80930301853081F008958091AA
:107A0000C00085FFFCCF84E18093C6008091C00058
:107A100085FFFCCF80E18093C6000895E0910401CA
:107A2000F09105010995089540E951E08823A1F0FE
:107A30002D9A28EE33E0FA013197F1F721503040CA
:107A4000D1F72D9828EE33E0FA013197F1F7215064
:107A50003040D1F7815061F708953F924F925F9285
:107A60006F927F928F929F92AF92BF92CF92DF924E
:107A7000EF92FF920F931F93CF93DF93000080E16B
:107A80008093C4001092C50088E18093C10086E015
:107A90008093C2005098589A259A81E00E94143D24
:107AA00024E1F22E9EE1E92E85E9D82E0FE0C02ECA
:107AB00010E1B12EAA24A394B1E49B2EA6E58A2E50
:107AC000F2E57F2EE0E26E2E79E4572E63E5462E36
:107AD00050E5352E0E94763C8033B1F18133B9F107
:107AE000803409F46FC0813409F476C0823409F41B
:107AF00085C0853409F488C0803531F1823521F1A3
:107B0000813511F1853509F485C0863509F48DC0BC
:107B1000843609F496C0843709F403C1853709F423
:107B200072C1863709F466C0809103018F5F80932C
:107B30000301853079F6E0910401F0910501099582
:107B40000E94763C803351F60E94F33CC3CF0E94E2
:107B5000763C803249F78091C00085FFFCCFF092DF
:107B6000C6008091C00085FFFCCF9092C600809136
:107B7000C00085FFFCCF8092C6008091C00085FFC9
:107B8000FCCF7092C6008091C00085FFFCCF609250
:107B9000C6008091C00085FFFCCF5092C600809146
:107BA000C00085FFFCCF4092C6008091C00085FFD9
:107BB000FCCF3092C6008091C00085FFFCCFB09210
:107BC000C60088CF0E94763C863808F4BDCF0E945C
:107BD000763C0E94F33C7ECF0E94763C803809F4CC
:107BE0009CC0813809F40BC1823809F43CC1883942
:107BF00009F48FC080E00E94C73C6CCF84E10E94F2
:107C0000BD3C0E94F33C66CF85E00E94BD3C0E94D3
:107C1000F33C60CF0E94763C809306010E94763C44
:107C2000809307010E94F33C55CF0E94763C80333D
:107C300009F41DC183E00E94BD3C80E00E94C73C66
:107C400049CF0E94763C809309020E94763C809343
:107C5000080280910C028E7F80930C020E94763C79
:107C6000853409F415C18091080290910902892B8D
:107C700089F000E010E00E94763CF801E85FFE4FDA
:107C800080830F5F1F4F80910802909109020817AF
:107C9000190788F30E94763C803209F045CF809125
:107CA0000C0280FF01C16091060170910701660F0F
:107CB000771F7093070160930601A0910802B091AD
:107CC00009021097C9F0E8E0F1E09B01AD014E0F09
:107CD0005F1FF999FECF32BD21BD819180BDFA9A17
:107CE000F99A2F5F3F4FE417F50799F76A0F7B1F4B
:107CF00070930701609306018091C00085FFFCCF5F
:107D0000F092C6008091C00085FFFCCFB092C60003
:107D1000E1CE83E00E94C73CDDCE82E00E94C73CFA
:107D2000D9CE0E94763C809309020E94763C8093D3
:107D300008028091060190910701880F991F909386
:107D40000701809306010E94763C853409F4A6C0A1
:107D500080910C028E7F80930C020E94763C8032D0
:107D600009F0B8CE8091C00085FFFCCFF092C6002C
:107D7000609108027091090261157105B9F140E046
:107D800050E080910C02A82FA170B82FB27011C0E2
:107D9000BB2309F45CC0E0910601F0910701319624
:107DA000F0930701E09306014F5F5F4F46175707B7
:107DB000E8F4AA2369F3F999FECF209106013091E6
:107DC000070132BD21BDF89A90B58091C00085FFB2
:107DD000FCCF9093C6002F5F3F4F30930701209355
:107DE00006014F5F5F4F4617570718F38091C00099
:107DF00085FDE5CE8091C00085FFF8CFE0CE81E023
:107E00000E94C73C67CE0E94763C803209F08CCE3F
:107E10008091C00085FFFCCFF092C6008091C00029
:107E200085FFFCCFE092C6008091C00085FFFCCFAB
:107E3000D092C6008091C00085FFFCCFC092C600E2
:107E40008091C00085FFFCCFB092C60043CEE09188
:107E50000601F091070194918091C00085FFFCCF4D
:107E60009093C6009CCF80E10E94C73C33CE0E9415
:107E7000763C0E94763C182F0E94763C112309F430
:107E800083C0113009F484C08FE00E94C73C22CE29
:107E900080910C02816080930C02E5CE80910C02EF
:107EA000816080930C0259CF809107018823880F4D
:107EB000880B8A2180930B02809106019091070123
:107EC000880F991F90930701809306018091080203
:107ED00080FF09C080910802909109020196909359
:107EE000090280930802F894F999FECF1127E091D6
:107EF0000601F0910701C8E0D1E08091080290915D
:107F00000902103091F40091570001700130D9F34B
:107F100003E000935700E89500915700017001308D
:107F2000D9F301E100935700E89509901990009169
:107F3000570001700130D9F301E000935700E89534
:107F40001395103498F011270091570001700130FB
:107F5000D9F305E000935700E895009157000170B0
:107F60000130D9F301E100935700E895329602976A
:107F700009F0C7CF103011F00296E5CF112480919F
:107F8000C00085FFB9CEBCCE8EE10E94C73CA2CD19
:0C7F900085E90E94C73C9ECDF894FFCF0D
:027F9C00800063
:040000030000780081
:00000001FF
